:107E000001C0EDC01F92CDB7DEB7112484B788231F
:107E100061F0982F9A70923041F081FF02C097EF85
:107E200094BF282E80E0C6D0EBC085E0809381000F
:107E300082E08093C00088E18093C10086E0809357
:107E4000C20087E68093C4008EE0B4D0259A86E015
:107E500020E33CEF91E0309385002093840096BBB3
:107E6000B09BFECF1D9AA8954091C00047FD02C06F
:107E7000815089F7529A5A9893E0D92ECC24C39412
:107E800025E0B22E31E1A32E89D0813479F486D059
:107E9000898396D08981823811F481E005C08138C8
:107EA00011F48DE601C083E069D065C0823411F41D
:107EB00084E103C0853419F485E08AD05CC085353F
:107EC00039F46CD0882E6AD0982E880C991C52C038
:107ED000863521F484E07CD080E0E6CF843609F05A
:107EE0002DC05CD05BD0F82E59D0E82E00E011E018
:107EF00055D0F80181938F01FE12FACF61D0F5E4DD
:107F0000EF1201C0FFCFF401D7BEE89507B600FC21
:107F1000FDCFF401A0E0B1E08D919D910C01C7BEB1
:107F2000E89511243296FA12F7CFF401B7BEE8951E
:107F300007B600FCFDCFA7BEE8951DC0843769F4E5
:107F40002DD02CD0182F2AD03BD07401F701859169
:107F50007F0114D01150D1F70EC0853739F430D0DD
:107F60008EE10CD085E90AD08FE09ECF813511F4E7
:107F700088E020D025D080E101D086CF9091C0004C
:107F800095FFFCCF90649093C0005A9A8093C600EE
:107F90008091C00086FFFCCF5A9808958091C00060
:107FA00087FFFCCF8091C00084FD01C0A89580911F
:107FB000C6000895E0E6F0E098E19083808308959C
:107FC000EDDF803219F088E0F5DFFFCF84E1D6CF16
:107FD000CF93C82FE3DFC150E9F7CF91F1CFFC0178
:107FE0000A0167BFE895112407B600FCFDCF667053
:0E7FF00029F0452B19F481E187BFE89508952B
:027FFE00016D13
:0400000300007E007B
:00000001FF
